:020000040800F2
:100000007806002061020008690200086B020008FF
:100010006D0200086F020008710200080000000075
:100020000000000000000000000000007302000853
:10003000750200080000000077020008790200083D
:100040007B0200087B0200087B0200087B0200089C
:100050007B0200087B0200087B0200087B0200088C
:100060007B0200087B0200087B0200087B0200087C
:100070007B0200087B0200087B0200087B0200086C
:100080007B0200087B0200087B02000800000000E1
:100090000000000000000000000000007B020008DB
:1000A0007B0200087B0200087B0200087B0200083C
:1000B0007B0200087B0200087B0200087B0200082C
:1000C0007B0200087B0200087B0200087B0200081C
:1000D0007B0200087B0200087B0200080000000091
:1000E0007B0200087B0200087B0200080000000081
:1000F0000000000000000000000000007B0200087B
:10010000000000007B0200087B0200087B02000860
:1001100000000000000000000000000000000000DF
:100120007B0200087B0200087B0200087B020008BB
:100130007B0200080000000000000000000000003A
:100140000000000000000000000000007B0200082A
:100150007B0200087B0200087B0200087B0200088B
:100160007B0200087B020008000000000000000085
:10017000000000000000000000000000000000007F
:10018000000000007B0200080000000000000000EA
:100190007B02000800F002F800F052F814A696E87E
:1001A000000CB244B344DA4501D100F049F8BAE892
:1001B0000F000FA696E83000A5EB040504EB060738
:1001C000AAEB0704A7F101074FEA15154FEA34140B
:1001D000A4F10104AC4201D300F032F813F0010F96
:1001E00018BFFB1A43F0010300F001F8DBE71847E2
:1001F0004C0900006C090000103A24BF78C878C18F
:10020000FAD8520724BF30C830C144BF04680C601C
:1002100070470000704700000023002400250026DE
:10022000103A28BF78C1FBD8520728BF30C148BF59
:100230000B6070471FB500F073FC1FBD10B510BDFB
:1002400000F031F81146FFF7F5FF00F019FC00F05F
:100250004FF803B4FFF7F2FF03BC00F057F80000BB
:100260000948804709480047FEE7FEE7FEE7FEE74A
:10027000FEE7FEE7FEE7FEE7FEE7FEE70448054986
:10028000054A064B70470000DD090008950100088B
:1002900078000020780600207802002078020020F4
:1002A000704770477047754600F02CF8AE46050061
:1002B0006946534620F00700854618B020B5FFF781
:1002C000DDFFBDE820404FF000064FF000074FF083
:1002D00000084FF0000BAC46ACE8C009ACE8C00920
:1002E000ACE8C009ACE8C00921F007018D467047B1
:1002F00010B50446AFF300802046BDE81040FFF77C
:10030000A8BF0000004870471000002001491820D5
:10031000ABBEFEE7260002007047000080B584B047
:10032000039000F013FA02900398019001980130B5
:1003300048B1FFE740F20400C2F2000001780198E2
:1003400008440190FFE7FFE700F000FA0299401A25
:100350000199884201D2FFE7F6E704B080BD0000B2
:100360008BB00A90099100200790069005900890A4
:10037000FFE708980F2800F2A281FFE70899012003
:1003800088400790099800680799084006900698E9
:100390000799884240F08E81FFE70998406800F095
:1003A0000300012807D0FFE70998406800F0030028
:1003B00002282FD1FFE70A9880680590089841002D
:1003C000032000FA01F10598884305900998C06858
:1003D0000899490000FA01F105980843059005982D
:1003E0000A9988600A98406805900899012000FAE7
:1003F00001F105988843059009984068C0F3001002
:10040000089900FA01F105980843059005980A99A2
:100410004860FFE70998406800F00300032818D0FF
:10042000FFE70A98C068059008984100032000FA89
:1004300001F105988843059009988068089949005A
:1004400000FA01F105980843059005980A99C860DB
:10045000FFE70998406800F00300022826D1FFE773
:100460000A9808996FF0030202EA51010844006AF1
:100470000590089800F0070081000F2000FA01F1B4
:1004800005988843059009980069089901F00701CB
:10049000890000FA01F105980843059005980A992A
:1004A000089B02EA530211440862FFE70A980068B9
:1004B000059008984100032000FA01F1059888434F
:1004C00005900998406800F003000899490000FA77
:1004D00001F105980843059005980A990860099864
:1004E00080798007002800F0E480FFE7FFE7002024
:1004F000049043F64400C4F20200016841F48041D4
:100500000160006800F4804004900498FFE70898B8
:1005100020F0030043F60801C4F2010140580590A1
:10052000089800F0030081000F2000FA01F10598FF
:10053000884305900A980021C4F20201884203D141
:10054000FFE70020039034E00A9840F20041C4F233
:100550000201884203D1FFE70120029026E00A98B9
:1005600040F60001C4F20201884203D1FFE70220F5
:10057000019018E00A9840F60041C4F20201884256
:1005800003D1FFE7032000900AE00A9941F200023C
:10059000C4F202020720914208BF04200090FFE746
:1005A00000980190FFE701980290FFE702980390FE
:1005B000FFE70398C0B2089901F00301890000FA2F
:1005C00001F10598084305900598089921F0030169
:1005D00043F60802C4F20102885043F60840C4F210
:1005E00001000068059006990598884305900998D0
:1005F0008079C006002805D5FFE7069905980843CD
:100600000590FFE7059843F60841C4F20101086030
:1006100043F60C40C4F20100006805900699059865
:1006200088430590099880798006002805D5FFE762
:100630000699059808430590FFE7059843F60C4195
:10064000C4F20101086043F60440C4F201000068EE
:100650000590069905988843059009988079800748
:10066000002805D5FFE70699059808430590FFE7A0
:10067000059843F60441C4F20101086043F60040C6
:10068000C4F201000068059006990598884305901A
:1006900009988079C00728B1FFE7069905980843B3
:1006A0000590FFE7059843F60041C4F20101086098
:1006B000FFE7FFE7FFE708980130089059E60BB025
:1006C0007047000082B00190ADF8021001980069F7
:1006D000BDF80210084204D0FFE701208DF80100A8
:1006E00003E000208DF80100FFE79DF8010002B053
:1006F0007047000083B00290ADF806100298406980
:100700000090009ABDF8060002EA0001904340EA1A
:1007100001400299886103B07047000082B00190E7
:10072000ADF802108DF801209DF8010028B1FFE717
:10073000BDF802000199886105E0BDF802000004DF
:1007400001998861FFE702B07047000040F2700035
:10075000C2F200000068704780B543F60041C4F261
:100760000201086840F400700860086840F4806086
:100770000860032000F05CF80F2000F005F800F09E
:100780003BF8002080BD000080B582B0009040F2B0
:100790000000C2F20000006840F20401C2F2000151
:1007A0000A784FF47A71B1FBF2F1B0FBF1F000F08E
:1007B00047F820B1FFE701208DF8070018E0009806
:1007C0000F280DD8FFE700994FF0FF30002200F00E
:1007D00015F8009840F20801C2F20001086003E039
:1007E00001208DF8070003E000208DF80700FFE7E7
:1007F0009DF8070002B080BD7047000080B586B04C
:100800008DF81700049103920020029000F0F0F898
:1008100002909DF91700019002980499039A00F044
:100820007BF80146019800F0EBF806B080BD0000AF
:1008300080B582B00190019800F004F902B080BD4B
:1008400080B582B00190019800F09CF802B080BDA4
:1008500080B58AB0FFE70020099043F63000C4F26B
:100860000200016841F001010160006800F0010030
:1008700009900998FFE7FFE70020089043F6300051
:10088000C4F20200016841F002010160006800F05A
:10089000020008900898FFE7FFE70020079043F662
:1008A0003000C4F20200016841F0040101600068F8
:1008B00000F0040007900798FFE7002000900690E2
:1008C0000590049003900290402102910390022031
:1008D00004900020C4F2020002A90191FFF740FD3C
:1008E00001994FF48060029040F20040C4F202008F
:1008F000FFF736FD009801994FF4804202920122E1
:1009000003920490059040F60000C4F20200FFF745
:1009100027FD0AB080BD000088B0079006910592BF
:10092000079800F0070004900498C0F1070005281C
:1009300003D3FFE70420019004E00498C0F107000E
:100940000190FFE70198039004980430062803D82B
:10095000FFE70020009003E0049803380090FFE7D1
:100960000098029006980399012202FA01F10139D8
:100970000840029B984005999A40013A114008436B
:1009800008B0704780B582B0009000980138B0F18F
:10099000807F03D3FFE70120019019E00098013820
:1009A0004EF21401CEF2000108604FF0FF300F212B
:1009B00000F026F84EF21801CEF200010020086087
:1009C0004EF21002CEF20002072111600190FFE703
:1009D000019802B080BD0000704700004EF68851BB
:1009E000CEF20001086840F4700008607047000013
:1009F0004EF60C50CEF200000068C0F302207047A3
:100A000082B08DF8070000919DF9070000280AD4F4
:100A1000FFE7009800019DF907104EF20042CEF268
:100A2000000288540BE0009800019DF8071001F0C7
:100A30000F014EF61452CEF200028854FFE702B0C6
:100A40007047000083B00290029800F00700009009
:100A50004EF60C51CEF200010868019001984FF655
:100A6000FF02104001900198009A40EA0220002203
:100A7000C0F2FA52104301900198086003B0704729
:100A800080B584B0002001900390FFF765FEFFF76A
:100A9000A3FFFFF7DDFE01988DF80B00FFE70020B4
:100AA000C4F202004021FFF70DFE012804D1FFE748
:100AB00001208DF80B00FFE740F20040C4F2020075
:100AC0004FF48061FFF7FEFD01280DD1FFE7002004
:100AD0008DF80B0040F60000C4F202004FF4804194
:100AE0000122FFF71BFEFFE79DF80B0068B1FFE74F
:100AF00040F60000C4F202004FF48041FFF7FAFD17
:100B00004FF4FA70FFF70AFC09E040F60000C4F267
:100B100002004FF480410122FFF700FEFFE7BEE72D
:100B2000F1EE100A4FF6FF71C0F2C03120EA010069
:100B300040F04070E1EE100A704700005C0B0008C6
:100B4000000000200C000000F8010008680B0008FD
:100B50001000002068060000180200080024F400BD
:080B600001000000100000007C
:04000005080002618C
:00000001FF
