:020000040800F2
:1000000060060020450200084D0200084F0200086B
:1000100051020008530200085502000800000000C9
:10002000000000000000000000000000570200086F
:1000300059020008000000005B0200085D02000891
:100040005F0200085F0200085F0200085F0200080C
:100050005F0200085F0200085F0200085F020008FC
:100060005F0200085F0200085F0200085F020008EC
:100070005F0200085F0200085F0200085F020008DC
:100080005F0200085F0200085F0200080000000035
:100090000000000000000000000000005F020008F7
:1000A0005F0200085F0200085F0200085F020008AC
:1000B0005F0200085F0200085F0200085F0200089C
:1000C0005F0200085F0200085F0200085F0200088C
:1000D0005F0200085F0200085F02000800000000E5
:1000E0005F0200085F0200085F02000800000000D5
:1000F0000000000000000000000000005F02000897
:10010000000000005F0200085F0200085F020008B4
:1001100000000000000000000000000000000000DF
:100120005F0200085F0200085F0200085F0200082B
:100130005F02000800000000000000000000000056
:100140000000000000000000000000005F02000846
:100150005F0200085F0200085F0200085F020008FB
:100160005F0200085F0200080000000000000000BD
:10017000000000000000000000000000000000007F
:10018000000000005F020008000000000000000006
:100190005F02000800F002F800F044F814A696E8A8
:1001A000000CB244B344DA4501D100F03BF8BAE8A0
:1001B0000F000FA696E83000A5EB040504EB060738
:1001C000AAEB0704A7F101074FEA15154FEA34140B
:1001D000A4F10104AC4201D300F024F813F0010FA4
:1001E00018BFFB1A43F0010300F001F8DBE71847E2
:1001F000FC0200000C0300007047000000230024F4
:1002000000250026103A28BF78C1FBD8520728BF26
:1002100030C148BF0B6070471FB500F05AF91FBDD1
:1002200010B510BD00F031F81146FFF7F5FF00F0F2
:1002300071F800F04FF803B4FFF7F2FF03BC00F0D1
:1002400057F800000948804709480047FEE7FEE7E5
:10025000FEE7FEE7FEE7FEE7FEE7FEE7FEE7FEE776
:1002600004480549054A064B704700000103000891
:100270009501000860000020600600206002002058
:1002800060020020704770477047754600F02CF8F8
:10029000AE4605006946534620F00700854618B073
:1002A00020B5FFF7DDFFBDE820404FF000064FF01E
:1002B00000074FF000084FF0000BAC46ACE8C00957
:1002C000ACE8C009ACE8C009ACE8C00921F00701FE
:1002D0008D46704710B50446AFF300802046BDE858
:1002E0001040FFF7A8BF0000004870470000002042
:1002F00001491820ABBEFEE726000200704700004F
:100300004EF68851CEF20001086840F47000086093
:100310007047000086B00020059043F63001C4F21B
:100320000201086840F001000860086840F002001F
:100330000860086840F00400086040F20041C4F220
:1003400002010091086808600868086040F20C42E9
:10035000C4F20202106820F440101060106840F4EB
:10036000801010600022C4F2020210681060106851
:1003700010600C22C4F20202106820F44050106099
:10038000106840F48050106040F60002C4F202028F
:10039000106840F08050106010681060086840F4E9
:1003A0008020086008680860FFE740F21040C4F24F
:1003B000020000684005002841D5FFE700200490B6
:1003C000FFE7049844F23F21C0F20F01884205DCA8
:1003D000FFE7FFE7049801300490F2E740F61401CC
:1003E000C4F20201086820F48040086040F2144121
:1003F000C4F20201086840F4007008600020039015
:10040000FFE7039844F23F21C0F20F01884205DC68
:10041000FFE7FFE7039801300390F2E740F614018D
:10042000C4F20201086840F48040086040F21441C0
:10043000C4F20201086820F400700860FFE7102091
:10044000C4F2020000684006002841D5FFE7002002
:100450000290FFE7029848F29F61C0F201018842D2
:1004600005DCFFE7FFE7029801300290F2E740F673
:100470001401C4F20201086820F48040086040F2D0
:100480001441C4F20201086840F4007008600020C2
:100490000190FFE7019848F29F61C0F20101884294
:1004A00005DCFFE7FFE7019801300190F2E740F635
:1004B0001401C4F20201086840F48040086040F270
:1004C0001441C4F20201086820F400700860FFE7DC
:1004D0006BE7F1EE100A4FF6FF71C0F2C03120EA6F
:1004E000010040F04070E1EE100A7047FC04000883
:0C04F0000000002060060000FC01000875
:0400000508000245A8
:00000001FF
